{
  "contractName": "Storage",
  "abi": [
    {
      "inputs": [],
      "stateMutability": "nonpayable",
      "type": "constructor"
    },
    {
      "inputs": [],
      "name": "a",
      "outputs": [
        {
          "internalType": "uint8",
          "name": "",
          "type": "uint8"
        }
      ],
      "stateMutability": "view",
      "type": "function",
      "constant": true
    },
    {
      "inputs": [
        {
          "internalType": "uint256",
          "name": "",
          "type": "uint256"
        }
      ],
      "name": "aa",
      "outputs": [
        {
          "internalType": "uint256",
          "name": "",
          "type": "uint256"
        }
      ],
      "stateMutability": "view",
      "type": "function",
      "constant": true
    },
    {
      "inputs": [],
      "name": "b",
      "outputs": [
        {
          "internalType": "uint16",
          "name": "",
          "type": "uint16"
        }
      ],
      "stateMutability": "view",
      "type": "function",
      "constant": true
    },
    {
      "inputs": [
        {
          "internalType": "address",
          "name": "",
          "type": "address"
        }
      ],
      "name": "bb",
      "outputs": [
        {
          "internalType": "uint256",
          "name": "",
          "type": "uint256"
        }
      ],
      "stateMutability": "view",
      "type": "function",
      "constant": true
    },
    {
      "inputs": [],
      "name": "c",
      "outputs": [
        {
          "internalType": "address",
          "name": "",
          "type": "address"
        }
      ],
      "stateMutability": "view",
      "type": "function",
      "constant": true
    },
    {
      "inputs": [
        {
          "internalType": "uint256",
          "name": "",
          "type": "uint256"
        }
      ],
      "name": "cc",
      "outputs": [
        {
          "internalType": "uint256",
          "name": "",
          "type": "uint256"
        }
      ],
      "stateMutability": "view",
      "type": "function",
      "constant": true
    },
    {
      "inputs": [],
      "name": "e",
      "outputs": [
        {
          "internalType": "uint64",
          "name": "",
          "type": "uint64"
        }
      ],
      "stateMutability": "view",
      "type": "function",
      "constant": true
    },
    {
      "inputs": [],
      "name": "f",
      "outputs": [
        {
          "internalType": "uint256",
          "name": "",
          "type": "uint256"
        }
      ],
      "stateMutability": "view",
      "type": "function",
      "constant": true
    },
    {
      "inputs": [],
      "name": "g",
      "outputs": [
        {
          "internalType": "uint8",
          "name": "",
          "type": "uint8"
        }
      ],
      "stateMutability": "view",
      "type": "function",
      "constant": true
    },
    {
      "inputs": [],
      "name": "h",
      "outputs": [
        {
          "internalType": "uint256",
          "name": "",
          "type": "uint256"
        }
      ],
      "stateMutability": "view",
      "type": "function",
      "constant": true
    }
  ],
  "bytecode": "0x60806040526007600360006101000a81548160ff021916908360ff160217905550600a600360016101000a81548161ffff021916908361ffff160217905550734fabfbc310b6c8c6d276937b7d5adaa00bfd24976003806101000a81548173ffffffffffffffffffffffffffffffffffffffff021916908373ffffffffffffffffffffffffffffffffffffffff1602179055506001600360176101000a81548160ff021916908315150217905550600f600360186101000a81548167ffffffffffffffff021916908367ffffffffffffffff16021790555060c86004556028600560006101000a81548160ff021916908360ff16021790555061031560065534801561010a57600080fd5b506002600190806001815401808255809150506001900390600052602060002001600090919091909150556002600a908060018154018082558091505060019003906000526020600020016000909190919091505560026064908060018154018082558091505060019003906000526020600020016000909190919091505560046000806002815260200190815260200160002081905550600a6000806003815260200190815260200160002081905550606460016000734fabfbc310b6c8c6d276937b7d5adaa00bfd249773ffffffffffffffffffffffffffffffffffffffff1673ffffffffffffffffffffffffffffffffffffffff168152602001908152602001600020819055506104fa806102236000396000f3fe608060405234801561001057600080fd5b506004361061009e5760003560e01c8063c3da42b811610066578063c3da42b81461014b578063e1d9bbbd14610169578063e2179b8e14610199578063eb366c13146101b7578063ffae15ba146101e75761009e565b80630dbe671f146100a357806326121ff0146100c15780634df7e3d0146100df5780637323febe146100fd578063b8c9d3651461012d575b600080fd5b6100ab610205565b6040516100b89190610410565b60405180910390f35b6100c9610218565b6040516100d691906103da565b60405180910390f35b6100e761021e565b6040516100f491906103bf565b60405180910390f35b61011760048036038101906101129190610330565b610232565b60405161012491906103da565b60405180910390f35b61013561024a565b60405161014291906103da565b60405180910390f35b610153610250565b60405161016091906103a4565b60405180910390f35b610183600480360381019061017e9190610307565b610274565b60405161019091906103da565b60405180910390f35b6101a161028c565b6040516101ae9190610410565b60405180910390f35b6101d160048036038101906101cc9190610330565b61029f565b6040516101de91906103da565b60405180910390f35b6101ef6102c3565b6040516101fc91906103f5565b60405180910390f35b600360009054906101000a900460ff1681565b60045481565b600360019054906101000a900461ffff1681565b60006020528060005260406000206000915090505481565b60065481565b60038054906101000a900473ffffffffffffffffffffffffffffffffffffffff1681565b60016020528060005260406000206000915090505481565b600560009054906101000a900460ff1681565b600281815481106102af57600080fd5b906000526020600020016000915090505481565b600360189054906101000a900467ffffffffffffffff1681565b6000813590506102ec81610496565b92915050565b600081359050610301816104ad565b92915050565b60006020828403121561031957600080fd5b6000610327848285016102dd565b91505092915050565b60006020828403121561034257600080fd5b6000610350848285016102f2565b91505092915050565b6103628161042b565b82525050565b6103718161043d565b82525050565b6103808161046b565b82525050565b61038f81610475565b82525050565b61039e81610489565b82525050565b60006020820190506103b96000830184610359565b92915050565b60006020820190506103d46000830184610368565b92915050565b60006020820190506103ef6000830184610377565b92915050565b600060208201905061040a6000830184610386565b92915050565b60006020820190506104256000830184610395565b92915050565b60006104368261044b565b9050919050565b600061ffff82169050919050565b600073ffffffffffffffffffffffffffffffffffffffff82169050919050565b6000819050919050565b600067ffffffffffffffff82169050919050565b600060ff82169050919050565b61049f8161042b565b81146104aa57600080fd5b50565b6104b68161046b565b81146104c157600080fd5b5056fea264697066735822122000fb2056ecd1aace55118e3a3ba5150148976111012d9d696640b789c06922c364736f6c63430008040033",
  "immutableReferences": {},
  "source": "// SPDX-License-Identifier: MIT\npragma solidity >=0.4.22 <0.9.0;\n\n\n// in truffle console\n// web3.eth.getStorageAt(\"0xC82ABf1E5619ec5cA9a594Da6eF8b0A3c2911cE2\", 0)\ncontract Storage {\n  //maping storage\n  // keccak256(key . slot) => gets position of storage\n  mapping(uint => uint) public aa;    // slot 0\n  mapping(address => uint) public bb; // slot 1\n  \n  // dynamic array\n  // keccak256(slot) + index of the item\n  uint[] public cc; // slot 2\n\n\n\n\n  uint8 public a = 7; // 1byte\n  uint16 public b = 10; // 2byte\n  address public c = 0x4fAbfbc310B6c8C6D276937B7D5aDaa00BFD2497; // 20byte\n  bool d = true; //1bye\n  uint64 public e = 15; //8byte\n  // 32 bytes total values stored in slot 0 => mapping now slot 3\n  // 0x0f 01 4fabfbc310b6c8c6d276937b7d5adaa00bfd2497 000a 07\n  \n  \n  uint256 public f = 200; // 32 bytes => slot 1 0xc8 => mapping now slot 4\n  \n  uint8 public g = 40; // 1byte => slot 2 0x28 => mapping now slot 5\n\n  uint256 public h = 789; //32 bytes => slot3 0x0315 => mapping now slot 6\n\n\n  constructor() {\n    cc.push(1);\n    cc.push(10);\n    cc.push(100);\n\n\n    aa[2] = 4;\n    aa[3] = 10;\n\n    bb[0x4fAbfbc310B6c8C6D276937B7D5aDaa00BFD2497] = 100;\n  }\n}\n\n// 1st 32bytes mapping key - 2nd 32 bbytes keeping slot \n// 0x00000000000000000000000000000000000000000000000000000000000000020000000000000000000000000000000000000000000000000000000000000000\n// kessack abbb5caa7dda850e60932de0934eb1f9d0f59695050f761dc64e443e5030a569\n\n// 0x00000000000000000000000000000000000000000000000000000000000000030000000000000000000000000000000000000000000000000000000000000000\n// 101e368776582e57ab3d116ffe2517c0a585cd5b23174b01e275c2d8329c3d83\n\n// 0x0000000000000000000000004fAbfbc310B6c8C6D276937B7D5aDaa00BFD24970000000000000000000000000000000000000000000000000000000000000001\n// 040e28d65db9ad15012c7d5debbb6c6643abc647f6f827f6be787a3766cd26d1\n\n// 0000000000000000000000000000000000000000000000000000000000000002\n// keccak value 405787fa12a823e0f2b7631cc41b3ba8828b3321ca811111fa75cd3aa3bb5ace\n// decimall value of keccask value: 29102676481673041902632991033461445430619272659676223336789171408008386403023 (+1)\n// web3.eth.getStorageAt(\"0xc84B87619597bffB40b4B75eb69c3378eFbDF9A3\", \"0x405787fa12a823e0f2b7631cc41b3ba8828b3321ca811111fa75cd3aa3bb5ace\")\n    // returns 0x01 which is the value pushed from cc[]array\n",
  "sourcePath": "/Users/scooter/dev/blockchain/faucet/contracts/Storage.sol",
  "compiler": {
    "name": "solc",
    "version": "0.8.4+commit.c7e474f2.Emscripten.clang"
  },
  "schemaVersion": "3.4.3",
  "updatedAt": "2021-11-24T20:24:18.284Z",
  "networkType": "ethereum",
  "devdoc": {
    "kind": "dev",
    "methods": {},
    "version": 1
  },
  "userdoc": {
    "kind": "user",
    "methods": {},
    "version": 1
  }
}